{
  "_format": "hh-sol-artifact-1",
  "contractName": "Mock_router",
  "sourceName": "contracts/Mock_router.sol",
  "abi": [
    {
      "constant": false,
      "inputs": [
        {
          "name": "amountIn",
          "type": "uint256"
        },
        {
          "name": "amountOutMin",
          "type": "uint256"
        },
        {
          "name": "path",
          "type": "address[]"
        },
        {
          "name": "to",
          "type": "address"
        },
        {
          "name": "deadline",
          "type": "uint256"
        }
      ],
      "name": "swapExactTokensForETH",
      "outputs": [
        {
          "name": "amounts",
          "type": "uint256[]"
        }
      ],
      "payable": false,
      "stateMutability": "nonpayable",
      "type": "function"
    },
    {
      "constant": true,
      "inputs": [
        {
          "name": "amountOut",
          "type": "uint256"
        },
        {
          "name": "path",
          "type": "address[]"
        }
      ],
      "name": "getAmountsIn",
      "outputs": [
        {
          "name": "amounts",
          "type": "uint256[]"
        }
      ],
      "payable": false,
      "stateMutability": "view",
      "type": "function"
    },
    {
      "constant": true,
      "inputs": [],
      "name": "WETH",
      "outputs": [
        {
          "name": "",
          "type": "address"
        }
      ],
      "payable": false,
      "stateMutability": "pure",
      "type": "function"
    },
    {
      "constant": true,
      "inputs": [
        {
          "name": "amountIn",
          "type": "uint256"
        },
        {
          "name": "path",
          "type": "address[]"
        }
      ],
      "name": "getAmountsOut",
      "outputs": [
        {
          "name": "amounts",
          "type": "uint256[]"
        }
      ],
      "payable": false,
      "stateMutability": "view",
      "type": "function"
    },
    {
      "constant": false,
      "inputs": [
        {
          "name": "amountOut",
          "type": "uint256"
        },
        {
          "name": "path",
          "type": "address[]"
        },
        {
          "name": "to",
          "type": "address"
        },
        {
          "name": "deadline",
          "type": "uint256"
        }
      ],
      "name": "swapETHForExactTokens",
      "outputs": [
        {
          "name": "amounts",
          "type": "uint256[]"
        }
      ],
      "payable": true,
      "stateMutability": "payable",
      "type": "function"
    },
    {
      "inputs": [
        {
          "name": "_weth",
          "type": "address"
        }
      ],
      "payable": true,
      "stateMutability": "payable",
      "type": "constructor"
    },
    {
      "payable": true,
      "stateMutability": "payable",
      "type": "fallback"
    }
  ],
  "bytecode": "0x60806040526040516020806110218339810180604052602081101561002357600080fd5b8101908080519060200190929190505050806000806101000a81548173ffffffffffffffffffffffffffffffffffffffff021916908373ffffffffffffffffffffffffffffffffffffffff16021790555050610f9d806100846000396000f3fe60806040526004361061006d576000357c0100000000000000000000000000000000000000000000000000000000900463ffffffff16806318cbafe51461006f5780631f00ca7414610188578063ad5c46481461026d578063d06ca61f146102c4578063fb3bdb41146103a9575b005b34801561007b57600080fd5b50610131600480360360a081101561009257600080fd5b810190808035906020019092919080359060200190929190803590602001906401000000008111156100c357600080fd5b8201836020820111156100d557600080fd5b803590602001918460208302840111640100000000831117156100f757600080fd5b9091929391929390803573ffffffffffffffffffffffffffffffffffffffff169060200190929190803590602001909291905050506104ab565b6040518080602001828103825283818151815260200191508051906020019060200280838360005b83811015610174578082015181840152602081019050610159565b505050509050019250505060405180910390f35b34801561019457600080fd5b50610216600480360360408110156101ab57600080fd5b8101908080359060200190929190803590602001906401000000008111156101d257600080fd5b8201836020820111156101e457600080fd5b8035906020019184602083028401116401000000008311171561020657600080fd5b909192939192939050505061095b565b6040518080602001828103825283818151815260200191508051906020019060200280838360005b8381101561025957808201518184015260208101905061023e565b505050509050019250505060405180910390f35b34801561027957600080fd5b50610282610ab4565b604051808273ffffffffffffffffffffffffffffffffffffffff1673ffffffffffffffffffffffffffffffffffffffff16815260200191505060405180910390f35b3480156102d057600080fd5b50610352600480360360408110156102e757600080fd5b81019080803590602001909291908035906020019064010000000081111561030e57600080fd5b82018360208201111561032057600080fd5b8035906020019184602083028401116401000000008311171561034257600080fd5b9091929391929390505050610ad0565b6040518080602001828103825283818151815260200191508051906020019060200280838360005b8381101561039557808201518184015260208101905061037a565b505050509050019250505060405180910390f35b610454600480360360808110156103bf57600080fd5b8101908080359060200190929190803590602001906401000000008111156103e657600080fd5b8201836020820111156103f857600080fd5b8035906020019184602083028401116401000000008311171561041a57600080fd5b9091929391929390803573ffffffffffffffffffffffffffffffffffffffff16906020019092919080359060200190929190505050610c19565b6040518080602001828103825283818151815260200191508051906020019060200280838360005b8381101561049757808201518184015260208101905061047c565b505050509050019250505060405180910390f35b60608484600081811015156104bc57fe5b9050602002013573ffffffffffffffffffffffffffffffffffffffff1673ffffffffffffffffffffffffffffffffffffffff166323b872dd33308a6040518463ffffffff167c0100000000000000000000000000000000000000000000000000000000028152600401808473ffffffffffffffffffffffffffffffffffffffff1673ffffffffffffffffffffffffffffffffffffffff1681526020018373ffffffffffffffffffffffffffffffffffffffff1673ffffffffffffffffffffffffffffffffffffffff1681526020018281526020019350505050602060405180830381600087803b1580156105af57600080fd5b505af11580156105c3573d6000803e3d6000fd5b505050506040513d60208110156105d957600080fd5b8101908080519060200190929190505050503073ffffffffffffffffffffffffffffffffffffffff16631f00ca748887876040518463ffffffff167c010000000000000000000000000000000000000000000000000000000002815260040180848152602001806020018281038252848482818152602001925060200280828437600081840152601f19601f82011690508083019250505094505050505060006040518083038186803b15801561068f57600080fd5b505afa1580156106a3573d6000803e3d6000fd5b505050506040513d6000823e3d601f19601f8201168201806040525060208110156106cd57600080fd5b8101908080516401000000008111156106e557600080fd5b828101905060208101848111156106fb57600080fd5b815185602082028301116401000000008211171561071857600080fd5b505092919050505090508581600081518110151561073257fe5b90602001906020020151101515156107b2576040517f08c379a000000000000000000000000000000000000000000000000000000000815260040180806020018281038252601c8152602001807f52656365697661626c6520455448206c657373207468616e206d696e0000000081525060200191505060405180910390fd5b600073ffffffffffffffffffffffffffffffffffffffff168373ffffffffffffffffffffffffffffffffffffffff1614151515610857576040517f08c379a000000000000000000000000000000000000000000000000000000000815260040180806020018281038252601b8152602001807f4d6f636b206e6565647320746f203d3d206d73672e73656e646572000000000081525060200191505060405180910390fd5b600082141515156108d0576040517f08c379a00000000000000000000000000000000000000000000000000000000081526004018080602001828103825260108152602001807f496e76616c696420646561646c696e650000000000000000000000000000000081525060200191505060405180910390fd5b8273ffffffffffffffffffffffffffffffffffffffff168160008151811015156108f657fe5b9060200190602002015160405180600001905060006040518083038185875af1925050503d8060008114610946576040519150601f19603f3d011682016040523d82523d6000602084013e61094b565b606091505b5050508090509695505050505050565b6060600073ffffffffffffffffffffffffffffffffffffffff1683836000818110151561098457fe5b9050602002013573ffffffffffffffffffffffffffffffffffffffff1673ffffffffffffffffffffffffffffffffffffffff1614151515610a2d576040517f08c379a00000000000000000000000000000000000000000000000000000000081526004018080602001828103825260168152602001807f56616c696420706174682069732072657175697265640000000000000000000081525060200191505060405180910390fd5b6002604051908082528060200260200182016040528015610a5d5781602001602082028038833980820191505090505b50905061271060118502811515610a7057fe5b04816000815181101515610a8057fe5b90602001906020020181815250506000816001815181101515610a9f57fe5b90602001906020020181815250509392505050565b600073acddd0dba07959be810f6cd29e41b127b29e4a8a905090565b6060600073ffffffffffffffffffffffffffffffffffffffff16838360008181101515610af957fe5b9050602002013573ffffffffffffffffffffffffffffffffffffffff1673ffffffffffffffffffffffffffffffffffffffff1614151515610ba2576040517f08c379a00000000000000000000000000000000000000000000000000000000081526004018080602001828103825260168152602001807f56616c696420706174682069732072657175697265640000000000000000000081525060200191505060405180910390fd5b6002604051908082528060200260200182016040528015610bd25781602001602082028038833980820191505090505b50905083816000815181101515610be557fe5b90602001906020020181815250506000816001815181101515610c0457fe5b90602001906020020181815250509392505050565b60603073ffffffffffffffffffffffffffffffffffffffff16631f00ca748787876040518463ffffffff167c010000000000000000000000000000000000000000000000000000000002815260040180848152602001806020018281038252848482818152602001925060200280828437600081840152601f19601f82011690508083019250505094505050505060006040518083038186803b158015610cbf57600080fd5b505afa158015610cd3573d6000803e3d6000fd5b505050506040513d6000823e3d601f19601f820116820180604052506020811015610cfd57600080fd5b810190808051640100000000811115610d1557600080fd5b82810190506020810184811115610d2b57600080fd5b8151856020820283011164010000000082111715610d4857600080fd5b50509291905050509050806000815181101515610d6157fe5b906020019060200201513410151515610de2576040517f08c379a00000000000000000000000000000000000000000000000000000000081526004018080602001828103825260158152602001807f496e73756666696369656e74204574682073656e74000000000000000000000081525060200191505060405180910390fd5b60008214151515610e5b576040517f08c379a00000000000000000000000000000000000000000000000000000000081526004018080602001828103825260108152602001807f496e76616c696420646561646c696e650000000000000000000000000000000081525060200191505060405180910390fd5b848460018181101515610e6a57fe5b9050602002013573ffffffffffffffffffffffffffffffffffffffff1673ffffffffffffffffffffffffffffffffffffffff1663a9059cbb84886040518363ffffffff167c0100000000000000000000000000000000000000000000000000000000028152600401808373ffffffffffffffffffffffffffffffffffffffff1673ffffffffffffffffffffffffffffffffffffffff16815260200182815260200192505050602060405180830381600087803b158015610f2957600080fd5b505af1158015610f3d573d6000803e3d6000fd5b505050506040513d6020811015610f5357600080fd5b8101908080519060200190929190505050508090509594505050505056fea165627a7a72305820d34074e4faccc4886ec7815d2209c2bb2a28aabe8cc599f88caed5e037f723a00029",
  "linkReferences": {},
  "deployedLinkReferences": {}
}