{
  "_format": "hh-sol-artifact-1",
  "contractName": "Mock_router",
  "sourceName": "contracts/Mock_router.sol",
  "abi": [
    {
      "constant": false,
      "inputs": [
        {
          "name": "amountIn",
          "type": "uint256"
        },
        {
          "name": "amountOutMin",
          "type": "uint256"
        },
        {
          "name": "path",
          "type": "address[]"
        },
        {
          "name": "to",
          "type": "address"
        },
        {
          "name": "deadline",
          "type": "uint256"
        }
      ],
      "name": "swapExactTokensForETH",
      "outputs": [
        {
          "name": "amounts",
          "type": "uint256[]"
        }
      ],
      "payable": false,
      "stateMutability": "nonpayable",
      "type": "function"
    },
    {
      "constant": true,
      "inputs": [
        {
          "name": "amountOut",
          "type": "uint256"
        },
        {
          "name": "path",
          "type": "address[]"
        }
      ],
      "name": "getAmountsIn",
      "outputs": [
        {
          "name": "amounts",
          "type": "uint256[]"
        }
      ],
      "payable": false,
      "stateMutability": "view",
      "type": "function"
    },
    {
      "constant": true,
      "inputs": [],
      "name": "WETH",
      "outputs": [
        {
          "name": "",
          "type": "address"
        }
      ],
      "payable": false,
      "stateMutability": "pure",
      "type": "function"
    },
    {
      "constant": true,
      "inputs": [
        {
          "name": "amountIn",
          "type": "uint256"
        },
        {
          "name": "path",
          "type": "address[]"
        }
      ],
      "name": "getAmountsOut",
      "outputs": [
        {
          "name": "amounts",
          "type": "uint256[]"
        }
      ],
      "payable": false,
      "stateMutability": "view",
      "type": "function"
    },
    {
      "constant": false,
      "inputs": [
        {
          "name": "amountOut",
          "type": "uint256"
        },
        {
          "name": "path",
          "type": "address[]"
        },
        {
          "name": "to",
          "type": "address"
        },
        {
          "name": "deadline",
          "type": "uint256"
        }
      ],
      "name": "swapETHForExactTokens",
      "outputs": [
        {
          "name": "amounts",
          "type": "uint256[]"
        }
      ],
      "payable": true,
      "stateMutability": "payable",
      "type": "function"
    },
    {
      "inputs": [
        {
          "name": "_weth",
          "type": "address"
        }
      ],
      "payable": true,
      "stateMutability": "payable",
      "type": "constructor"
    },
    {
      "payable": true,
      "stateMutability": "payable",
      "type": "fallback"
    }
  ],
  "bytecode": "0x608060405260405160208061101b8339810180604052602081101561002357600080fd5b8101908080519060200190929190505050806000806101000a81548173ffffffffffffffffffffffffffffffffffffffff021916908373ffffffffffffffffffffffffffffffffffffffff16021790555050610f97806100846000396000f3fe608060405260043610610067576000357c01000000000000000000000000000000000000000000000000000000009004806318cbafe5146100695780631f00ca7414610182578063ad5c464814610267578063d06ca61f146102be578063fb3bdb41146103a3575b005b34801561007557600080fd5b5061012b600480360360a081101561008c57600080fd5b810190808035906020019092919080359060200190929190803590602001906401000000008111156100bd57600080fd5b8201836020820111156100cf57600080fd5b803590602001918460208302840111640100000000831117156100f157600080fd5b9091929391929390803573ffffffffffffffffffffffffffffffffffffffff169060200190929190803590602001909291905050506104a5565b6040518080602001828103825283818151815260200191508051906020019060200280838360005b8381101561016e578082015181840152602081019050610153565b505050509050019250505060405180910390f35b34801561018e57600080fd5b50610210600480360360408110156101a557600080fd5b8101908080359060200190929190803590602001906401000000008111156101cc57600080fd5b8201836020820111156101de57600080fd5b8035906020019184602083028401116401000000008311171561020057600080fd5b9091929391929390505050610955565b6040518080602001828103825283818151815260200191508051906020019060200280838360005b83811015610253578082015181840152602081019050610238565b505050509050019250505060405180910390f35b34801561027357600080fd5b5061027c610aae565b604051808273ffffffffffffffffffffffffffffffffffffffff1673ffffffffffffffffffffffffffffffffffffffff16815260200191505060405180910390f35b3480156102ca57600080fd5b5061034c600480360360408110156102e157600080fd5b81019080803590602001909291908035906020019064010000000081111561030857600080fd5b82018360208201111561031a57600080fd5b8035906020019184602083028401116401000000008311171561033c57600080fd5b9091929391929390505050610aca565b6040518080602001828103825283818151815260200191508051906020019060200280838360005b8381101561038f578082015181840152602081019050610374565b505050509050019250505060405180910390f35b61044e600480360360808110156103b957600080fd5b8101908080359060200190929190803590602001906401000000008111156103e057600080fd5b8201836020820111156103f257600080fd5b8035906020019184602083028401116401000000008311171561041457600080fd5b9091929391929390803573ffffffffffffffffffffffffffffffffffffffff16906020019092919080359060200190929190505050610c13565b6040518080602001828103825283818151815260200191508051906020019060200280838360005b83811015610491578082015181840152602081019050610476565b505050509050019250505060405180910390f35b60608484600081811015156104b657fe5b9050602002013573ffffffffffffffffffffffffffffffffffffffff1673ffffffffffffffffffffffffffffffffffffffff166323b872dd33308a6040518463ffffffff167c0100000000000000000000000000000000000000000000000000000000028152600401808473ffffffffffffffffffffffffffffffffffffffff1673ffffffffffffffffffffffffffffffffffffffff1681526020018373ffffffffffffffffffffffffffffffffffffffff1673ffffffffffffffffffffffffffffffffffffffff1681526020018281526020019350505050602060405180830381600087803b1580156105a957600080fd5b505af11580156105bd573d6000803e3d6000fd5b505050506040513d60208110156105d357600080fd5b8101908080519060200190929190505050503073ffffffffffffffffffffffffffffffffffffffff16631f00ca748887876040518463ffffffff167c010000000000000000000000000000000000000000000000000000000002815260040180848152602001806020018281038252848482818152602001925060200280828437600081840152601f19601f82011690508083019250505094505050505060006040518083038186803b15801561068957600080fd5b505afa15801561069d573d6000803e3d6000fd5b505050506040513d6000823e3d601f19601f8201168201806040525060208110156106c757600080fd5b8101908080516401000000008111156106df57600080fd5b828101905060208101848111156106f557600080fd5b815185602082028301116401000000008211171561071257600080fd5b505092919050505090508581600081518110151561072c57fe5b90602001906020020151101515156107ac576040517f08c379a000000000000000000000000000000000000000000000000000000000815260040180806020018281038252601c8152602001807f52656365697661626c6520455448206c657373207468616e206d696e0000000081525060200191505060405180910390fd5b600073ffffffffffffffffffffffffffffffffffffffff168373ffffffffffffffffffffffffffffffffffffffff1614151515610851576040517f08c379a000000000000000000000000000000000000000000000000000000000815260040180806020018281038252601b8152602001807f4d6f636b206e6565647320746f203d3d206d73672e73656e646572000000000081525060200191505060405180910390fd5b600082141515156108ca576040517f08c379a00000000000000000000000000000000000000000000000000000000081526004018080602001828103825260108152602001807f496e76616c696420646561646c696e650000000000000000000000000000000081525060200191505060405180910390fd5b8273ffffffffffffffffffffffffffffffffffffffff168160008151811015156108f057fe5b9060200190602002015160405180600001905060006040518083038185875af1925050503d8060008114610940576040519150601f19603f3d011682016040523d82523d6000602084013e610945565b606091505b5050508090509695505050505050565b6060600073ffffffffffffffffffffffffffffffffffffffff1683836000818110151561097e57fe5b9050602002013573ffffffffffffffffffffffffffffffffffffffff1673ffffffffffffffffffffffffffffffffffffffff1614151515610a27576040517f08c379a00000000000000000000000000000000000000000000000000000000081526004018080602001828103825260168152602001807f56616c696420706174682069732072657175697265640000000000000000000081525060200191505060405180910390fd5b6002604051908082528060200260200182016040528015610a575781602001602082028038833980820191505090505b50905061271060118502811515610a6a57fe5b04816000815181101515610a7a57fe5b90602001906020020181815250506000816001815181101515610a9957fe5b90602001906020020181815250509392505050565b600073acddd0dba07959be810f6cd29e41b127b29e4a8a905090565b6060600073ffffffffffffffffffffffffffffffffffffffff16838360008181101515610af357fe5b9050602002013573ffffffffffffffffffffffffffffffffffffffff1673ffffffffffffffffffffffffffffffffffffffff1614151515610b9c576040517f08c379a00000000000000000000000000000000000000000000000000000000081526004018080602001828103825260168152602001807f56616c696420706174682069732072657175697265640000000000000000000081525060200191505060405180910390fd5b6002604051908082528060200260200182016040528015610bcc5781602001602082028038833980820191505090505b50905083816000815181101515610bdf57fe5b90602001906020020181815250506000816001815181101515610bfe57fe5b90602001906020020181815250509392505050565b60603073ffffffffffffffffffffffffffffffffffffffff16631f00ca748787876040518463ffffffff167c010000000000000000000000000000000000000000000000000000000002815260040180848152602001806020018281038252848482818152602001925060200280828437600081840152601f19601f82011690508083019250505094505050505060006040518083038186803b158015610cb957600080fd5b505afa158015610ccd573d6000803e3d6000fd5b505050506040513d6000823e3d601f19601f820116820180604052506020811015610cf757600080fd5b810190808051640100000000811115610d0f57600080fd5b82810190506020810184811115610d2557600080fd5b8151856020820283011164010000000082111715610d4257600080fd5b50509291905050509050806000815181101515610d5b57fe5b906020019060200201513410151515610ddc576040517f08c379a00000000000000000000000000000000000000000000000000000000081526004018080602001828103825260158152602001807f496e73756666696369656e74204574682073656e74000000000000000000000081525060200191505060405180910390fd5b60008214151515610e55576040517f08c379a00000000000000000000000000000000000000000000000000000000081526004018080602001828103825260108152602001807f496e76616c696420646561646c696e650000000000000000000000000000000081525060200191505060405180910390fd5b848460018181101515610e6457fe5b9050602002013573ffffffffffffffffffffffffffffffffffffffff1673ffffffffffffffffffffffffffffffffffffffff1663a9059cbb84886040518363ffffffff167c0100000000000000000000000000000000000000000000000000000000028152600401808373ffffffffffffffffffffffffffffffffffffffff1673ffffffffffffffffffffffffffffffffffffffff16815260200182815260200192505050602060405180830381600087803b158015610f2357600080fd5b505af1158015610f37573d6000803e3d6000fd5b505050506040513d6020811015610f4d57600080fd5b8101908080519060200190929190505050508090509594505050505056fea165627a7a72305820d15af6503d6e5bebde5e7859b3a8616f1828b2388eb85736cd7ca426be8d67fd0029",
  "linkReferences": {},
  "deployedLinkReferences": {}
}